{
  "_format": "hh-sol-artifact-1",
  "contractName": "AegisNexus",
  "sourceName": "contracts/AegisNexus.sol",
  "abi": [
    {
      "inputs": [],
      "stateMutability": "nonpayable",
      "type": "constructor"
    },
    {
      "anonymous": false,
      "inputs": [
        {
          "indexed": true,
          "internalType": "address",
          "name": "_exporter",
          "type": "address"
        },
        {
          "indexed": false,
          "internalType": "string",
          "name": "_ipfsHash",
          "type": "string"
        }
      ],
      "name": "addHash",
      "type": "event"
    },
    {
      "inputs": [
        {
          "internalType": "uint256",
          "name": "_id",
          "type": "uint256"
        },
        {
          "internalType": "string",
          "name": "_regState",
          "type": "string"
        },
        {
          "internalType": "string",
          "name": "_phoneNum",
          "type": "string"
        }
      ],
      "name": "addDoc",
      "outputs": [],
      "stateMutability": "nonpayable",
      "type": "function"
    },
    {
      "inputs": [
        {
          "internalType": "bytes32",
          "name": "hash",
          "type": "bytes32"
        },
        {
          "internalType": "string",
          "name": "_ipfs",
          "type": "string"
        }
      ],
      "name": "addDocHash",
      "outputs": [],
      "stateMutability": "nonpayable",
      "type": "function"
    },
    {
      "inputs": [
        {
          "internalType": "address",
          "name": "_add",
          "type": "address"
        },
        {
          "internalType": "string",
          "name": "_info",
          "type": "string"
        }
      ],
      "name": "add_Exporter",
      "outputs": [],
      "stateMutability": "nonpayable",
      "type": "function"
    },
    {
      "inputs": [
        {
          "internalType": "address",
          "name": "_add",
          "type": "address"
        },
        {
          "internalType": "string",
          "name": "_newInfo",
          "type": "string"
        }
      ],
      "name": "alter_Exporter",
      "outputs": [],
      "stateMutability": "nonpayable",
      "type": "function"
    },
    {
      "inputs": [
        {
          "internalType": "address",
          "name": "_newOwner",
          "type": "address"
        }
      ],
      "name": "changeOwner",
      "outputs": [],
      "stateMutability": "nonpayable",
      "type": "function"
    },
    {
      "inputs": [],
      "name": "count_Exporters",
      "outputs": [
        {
          "internalType": "uint16",
          "name": "",
          "type": "uint16"
        }
      ],
      "stateMutability": "view",
      "type": "function"
    },
    {
      "inputs": [],
      "name": "count_hashes",
      "outputs": [
        {
          "internalType": "uint16",
          "name": "",
          "type": "uint16"
        }
      ],
      "stateMutability": "view",
      "type": "function"
    },
    {
      "inputs": [
        {
          "internalType": "bytes32",
          "name": "_hash",
          "type": "bytes32"
        }
      ],
      "name": "deleteHash",
      "outputs": [],
      "stateMutability": "nonpayable",
      "type": "function"
    },
    {
      "inputs": [
        {
          "internalType": "address",
          "name": "_add",
          "type": "address"
        }
      ],
      "name": "delete_Exporter",
      "outputs": [],
      "stateMutability": "nonpayable",
      "type": "function"
    },
    {
      "inputs": [
        {
          "internalType": "uint256",
          "name": "",
          "type": "uint256"
        }
      ],
      "name": "doctors",
      "outputs": [
        {
          "internalType": "uint256",
          "name": "id",
          "type": "uint256"
        },
        {
          "internalType": "address",
          "name": "docAddress",
          "type": "address"
        },
        {
          "internalType": "string",
          "name": "regState",
          "type": "string"
        },
        {
          "internalType": "string",
          "name": "phoneNum",
          "type": "string"
        }
      ],
      "stateMutability": "view",
      "type": "function"
    },
    {
      "inputs": [
        {
          "internalType": "bytes32",
          "name": "_hash",
          "type": "bytes32"
        }
      ],
      "name": "findDocHash",
      "outputs": [
        {
          "internalType": "uint256",
          "name": "",
          "type": "uint256"
        },
        {
          "internalType": "uint256",
          "name": "",
          "type": "uint256"
        },
        {
          "internalType": "string",
          "name": "",
          "type": "string"
        },
        {
          "internalType": "string",
          "name": "",
          "type": "string"
        }
      ],
      "stateMutability": "view",
      "type": "function"
    },
    {
      "inputs": [],
      "name": "getDoc",
      "outputs": [
        {
          "components": [
            {
              "internalType": "uint256",
              "name": "id",
              "type": "uint256"
            },
            {
              "internalType": "address",
              "name": "docAddress",
              "type": "address"
            },
            {
              "internalType": "string",
              "name": "regState",
              "type": "string"
            },
            {
              "internalType": "string",
              "name": "phoneNum",
              "type": "string"
            }
          ],
          "internalType": "struct AegisNexus.Doc[]",
          "name": "",
          "type": "tuple[]"
        }
      ],
      "stateMutability": "view",
      "type": "function"
    },
    {
      "inputs": [
        {
          "internalType": "address",
          "name": "_add",
          "type": "address"
        }
      ],
      "name": "getExporterInfo",
      "outputs": [
        {
          "internalType": "string",
          "name": "",
          "type": "string"
        }
      ],
      "stateMutability": "view",
      "type": "function"
    },
    {
      "inputs": [],
      "name": "owner",
      "outputs": [
        {
          "internalType": "address",
          "name": "",
          "type": "address"
        }
      ],
      "stateMutability": "view",
      "type": "function"
    }
  ],
  "bytecode": "0x60806040526000805463ffffffff1916905534801561001d57600080fd5b50600080546401000000003302600160201b600160c01b03199091161790556115e98061004b6000396000f3fe608060405234801561001057600080fd5b50600436106100ea5760003560e01c80636efb1b841161008c578063a6f9dae111610066578063a6f9dae114610214578063bf3ccf4814610227578063c58458671461023a578063cf3457bf1461024f57600080fd5b80636efb1b84146101ab578063766faedc146101ce5780638da5cb5b146101e157600080fd5b80634cf00d3f116100c85780634cf00d3f14610154578063505cd5d01461017757806363f0bfce1461018a5780636ed73e481461019d57600080fd5b806305c8dc19146100ef57806324ac89cb1461011857806343f6f5481461012d575b600080fd5b6101026100fd366004610ea0565b610262565b60405161010f9190610f08565b60405180910390f35b61012b610126366004610ea0565b610311565b005b6000546101419062010000900461ffff1681565b60405161ffff909116815260200161010f565b610167610162366004610f1b565b6103e2565b60405161010f9493929190610f34565b61012b610185366004610fb9565b610535565b61012b610198366004610f1b565b6105ba565b6000546101419061ffff1681565b6101be6101b9366004610f1b565b61072d565b60405161010f949392919061100c565b61012b6101dc3660046110d9565b610884565b6000546101fc9064010000000090046001600160a01b031681565b6040516001600160a01b03909116815260200161010f565b61012b610222366004610ea0565b610977565b61012b610235366004611146565b6109ef565b610242610c2d565b60405161010f9190611179565b61012b61025d366004610fb9565b610dd0565b6001600160a01b038116600090815260026020526040902060010180546060919061028c90611220565b80601f01602080910402602001604051908101604052809291908181526020018280546102b890611220565b80156103055780601f106102da57610100808354040283529160200191610305565b820191906000526020600020905b8154815290600101906020018083116102e857829003601f168201915b50505050509050919050565b60005464010000000090046001600160a01b0316331461034c5760405162461bcd60e51b81526004016103439061125a565b60405180910390fd5b6001600160a01b038116600090815260026020526040812054900361037357610373611291565b6001600160a01b0381166000818152600260208181526040808420848155815180840190925284825294909352526001909101906103b190826112f2565b506000805481906103c59061ffff166113c8565b91906101000a81548161ffff021916908361ffff16021790555050565b600081815260016020819052604082208054918101546002820180548594606094859491939192600390910190829061041a90611220565b80601f016020809104026020016040519081016040528092919081815260200182805461044690611220565b80156104935780601f1061046857610100808354040283529160200191610493565b820191906000526020600020905b81548152906001019060200180831161047657829003601f168201915b505050505091508080546104a690611220565b80601f01602080910402602001604051908101604052809291908181526020018280546104d290611220565b801561051f5780601f106104f45761010080835404028352916020019161051f565b820191906000526020600020905b81548152906001019060200180831161050257829003601f168201915b5050505050905093509350935093509193509193565b60005464010000000090046001600160a01b031633146105675760405162461bcd60e51b81526004016103439061125a565b6001600160a01b038316600090815260026020526040812054900361058e5761058e611291565b6001600160a01b03831660009081526002602052604090206001016105b48284836113e6565b50505050565b80600160008281526020019081526020016000206002016040516020016105e191906114a7565b60408051601f198184030181528282528051602091820120336000908152600283529290922091926106179260010191016114a7565b60405160208183030381529060405280519060200120146106925760405162461bcd60e51b815260206004820152602f60248201527f43616c6c6572206973206e6f742020617574686f726973656420746f2065646960448201526e1d081d1a1a5cc8191bd8dd5b595b9d608a1b6064820152608401610343565b3360009081526002602052604081205490036106c05760405162461bcd60e51b81526004016103439061151d565b60008281526001602081905260408220015490036106e0576106e0611291565b6000828152600160208190526040822082815501819055805460029061070f9062010000900461ffff166113c8565b91906101000a81548161ffff021916908361ffff1602179055505050565b6003818154811061073d57600080fd5b60009182526020909120600490910201805460018201546002830180549294506001600160a01b03909116929161077390611220565b80601f016020809104026020016040519081016040528092919081815260200182805461079f90611220565b80156107ec5780601f106107c1576101008083540402835291602001916107ec565b820191906000526020600020905b8154815290600101906020018083116107cf57829003601f168201915b50505050509080600301805461080190611220565b80601f016020809104026020016040519081016040528092919081815260200182805461082d90611220565b801561087a5780601f1061084f5761010080835404028352916020019161087a565b820191906000526020600020905b81548152906001019060200180831161085d57829003601f168201915b5050505050905084565b604080516080810182528481523360208201908152918101848152606082018490526003805460018101825560009190915282517fc2575a0e9e593c00f959f8c92f12db2869c3395a3b0502d05e2516446f71f85b600490920291820190815593517fc2575a0e9e593c00f959f8c92f12db2869c3395a3b0502d05e2516446f71f85c820180546001600160a01b0319166001600160a01b0390921691909117905590519192917fc2575a0e9e593c00f959f8c92f12db2869c3395a3b0502d05e2516446f71f85d9091019061095a90826112f2565b506060820151600382019061096f90826112f2565b505050505050565b60005464010000000090046001600160a01b031633146109a95760405162461bcd60e51b81526004016103439061125a565b806001600160a01b0381166109c0576109c0611291565b50600080546001600160a01b0390921664010000000002640100000000600160c01b0319909216919091179055565b336000908152600260205260408120549003610a1d5760405162461bcd60e51b81526004016103439061151d565b600083815260016020526040902054158015610a49575060008381526001602081905260409091200154155b610a5557610a55611291565b6000604051806080016040528043815260200142815260200160026000336001600160a01b03166001600160a01b031681526020019081526020016000206001018054610aa190611220565b80601f0160208091040260200160405190810160405280929190818152602001828054610acd90611220565b8015610b1a5780601f10610aef57610100808354040283529160200191610b1a565b820191906000526020600020905b815481529060010190602001808311610afd57829003601f168201915b5050505050815260200184848080601f0160208091040260200160405190810160405280939291908181526020018383808284376000920182905250939094525050868152600160208181526040928390208551815590850151918101919091559083015192935083929091506002820190610b9690826112f2565b5060608201516003820190610bab90826112f2565b505060008054909150600290610bca9062010000900461ffff16611563565b91906101000a81548161ffff021916908361ffff160217905550336001600160a01b03167f331f916dac8170a5e3a8a5c82c9de7950bb6cadfb098253c080cb72851b264708484604051610c1f929190611584565b60405180910390a250505050565b60606003805480602002602001604051908101604052809291908181526020016000905b82821015610dc757600084815260209081902060408051608081018252600486029092018054835260018101546001600160a01b03169383019390935260028301805492939291840191610ca490611220565b80601f0160208091040260200160405190810160405280929190818152602001828054610cd090611220565b8015610d1d5780601f10610cf257610100808354040283529160200191610d1d565b820191906000526020600020905b815481529060010190602001808311610d0057829003601f168201915b50505050508152602001600382018054610d3690611220565b80601f0160208091040260200160405190810160405280929190818152602001828054610d6290611220565b8015610daf5780601f10610d8457610100808354040283529160200191610daf565b820191906000526020600020905b815481529060010190602001808311610d9257829003601f168201915b50505050508152505081526020019060010190610c51565b50505050905090565b60005464010000000090046001600160a01b03163314610e025760405162461bcd60e51b81526004016103439061125a565b6001600160a01b03831660009081526002602052604090205415610e2857610e28611291565b6001600160a01b0383166000908152600260205260409020438155600101610e518284836113e6565b50600080548190610e659061ffff16611563565b91906101000a81548161ffff021916908361ffff160217905550505050565b80356001600160a01b0381168114610e9b57600080fd5b919050565b600060208284031215610eb257600080fd5b610ebb82610e84565b9392505050565b6000815180845260005b81811015610ee857602081850181015186830182015201610ecc565b506000602082860101526020601f19601f83011685010191505092915050565b602081526000610ebb6020830184610ec2565b600060208284031215610f2d57600080fd5b5035919050565b848152836020820152608060408201526000610f536080830185610ec2565b8281036060840152610f658185610ec2565b979650505050505050565b60008083601f840112610f8257600080fd5b50813567ffffffffffffffff811115610f9a57600080fd5b602083019150836020828501011115610fb257600080fd5b9250929050565b600080600060408486031215610fce57600080fd5b610fd784610e84565b9250602084013567ffffffffffffffff811115610ff357600080fd5b610fff86828701610f70565b9497909650939450505050565b8481526001600160a01b0384166020820152608060408201819052600090610f5390830185610ec2565b634e487b7160e01b600052604160045260246000fd5b600082601f83011261105d57600080fd5b813567ffffffffffffffff8082111561107857611078611036565b604051601f8301601f19908116603f011681019082821181831017156110a0576110a0611036565b816040528381528660208588010111156110b957600080fd5b836020870160208301376000602085830101528094505050505092915050565b6000806000606084860312156110ee57600080fd5b83359250602084013567ffffffffffffffff8082111561110d57600080fd5b6111198783880161104c565b9350604086013591508082111561112f57600080fd5b5061113c8682870161104c565b9150509250925092565b60008060006040848603121561115b57600080fd5b83359250602084013567ffffffffffffffff811115610ff357600080fd5b60006020808301818452808551808352604092508286019150828160051b87010184880160005b8381101561121257888303603f19018552815180518452878101516001600160a01b031688850152868101516080888601819052906111e182870182610ec2565b915050606080830151925085820381870152506111fe8183610ec2565b9689019694505050908601906001016111a0565b509098975050505050505050565b600181811c9082168061123457607f821691505b60208210810361125457634e487b7160e01b600052602260045260246000fd5b50919050565b60208082526017908201527f43616c6c6572206973206e6f7420746865206f776e6572000000000000000000604082015260600190565b634e487b7160e01b600052600160045260246000fd5b601f8211156112ed57600081815260208120601f850160051c810160208610156112ce5750805b601f850160051c820191505b8181101561096f578281556001016112da565b505050565b815167ffffffffffffffff81111561130c5761130c611036565b6113208161131a8454611220565b846112a7565b602080601f831160018114611355576000841561133d5750858301515b600019600386901b1c1916600185901b17855561096f565b600085815260208120601f198616915b8281101561138457888601518255948401946001909101908401611365565b50858210156113a25787850151600019600388901b60f8161c191681555b5050505050600190811b01905550565b634e487b7160e01b600052601160045260246000fd5b600061ffff8216806113dc576113dc6113b2565b6000190192915050565b67ffffffffffffffff8311156113fe576113fe611036565b6114128361140c8354611220565b836112a7565b6000601f841160018114611446576000851561142e5750838201355b600019600387901b1c1916600186901b1783556114a0565b600083815260209020601f19861690835b828110156114775786850135825560209485019460019092019101611457565b50868210156114945760001960f88860031b161c19848701351681555b505060018560011b0183555b5050505050565b60008083546114b581611220565b600182811680156114cd57600181146114e257611511565b60ff1984168752821515830287019450611511565b8760005260208060002060005b858110156115085781548a8201529084019082016114ef565b50505082870194505b50929695505050505050565b60208082526026908201527f43616c6c6572206e6f7420617574686f726973656420746f2061646420646f63604082015265756d656e747360d01b606082015260800190565b600061ffff80831681810361157a5761157a6113b2565b6001019392505050565b60208152816020820152818360408301376000818301604090810191909152601f909201601f1916010191905056fea2646970667358221220dee39e4b83c0192d9d4b250cc813f1227035b85bec5d2162561d071c796bd17364736f6c63430008110033",
  "linkReferences": {},
  "deployedLinkReferences": {}
}