{
  "_format": "hh-sol-artifact-1",
  "contractName": "DocRepo",
  "sourceName": "contracts/DocRepo.sol",
  "abi": [
    {
      "inputs": [
        {
          "internalType": "uint256",
          "name": "_id",
          "type": "uint256"
        },
        {
          "internalType": "string",
          "name": "_regState",
          "type": "string"
        },
        {
          "internalType": "string",
          "name": "_phoneNum",
          "type": "string"
        }
      ],
      "name": "addDoc",
      "outputs": [],
      "stateMutability": "nonpayable",
      "type": "function"
    },
    {
      "inputs": [
        {
          "internalType": "uint256",
          "name": "",
          "type": "uint256"
        }
      ],
      "name": "doctors",
      "outputs": [
        {
          "internalType": "uint256",
          "name": "id",
          "type": "uint256"
        },
        {
          "internalType": "address",
          "name": "docAddress",
          "type": "address"
        },
        {
          "internalType": "string",
          "name": "regState",
          "type": "string"
        },
        {
          "internalType": "string",
          "name": "phoneNum",
          "type": "string"
        }
      ],
      "stateMutability": "view",
      "type": "function"
    },
    {
      "inputs": [],
      "name": "getDoc",
      "outputs": [
        {
          "components": [
            {
              "internalType": "uint256",
              "name": "id",
              "type": "uint256"
            },
            {
              "internalType": "address",
              "name": "docAddress",
              "type": "address"
            },
            {
              "internalType": "string",
              "name": "regState",
              "type": "string"
            },
            {
              "internalType": "string",
              "name": "phoneNum",
              "type": "string"
            }
          ],
          "internalType": "struct DocRepo.Doc[]",
          "name": "",
          "type": "tuple[]"
        }
      ],
      "stateMutability": "view",
      "type": "function"
    }
  ],
  "bytecode": "0x608060405234801561001057600080fd5b5061085e806100206000396000f3fe608060405234801561001057600080fd5b50600436106100415760003560e01c80636efb1b8414610046578063766faedc14610072578063c584586714610087575b600080fd5b610059610054366004610486565b61009c565b60405161006994939291906104e5565b60405180910390f35b6100856100803660046105cf565b6101f3565b005b61008f6102e3565b604051610069919061063c565b600081815481106100ac57600080fd5b60009182526020909120600490910201805460018201546002830180549294506001600160a01b0390911692916100e2906106e3565b80601f016020809104026020016040519081016040528092919081815260200182805461010e906106e3565b801561015b5780601f106101305761010080835404028352916020019161015b565b820191906000526020600020905b81548152906001019060200180831161013e57829003601f168201915b505050505090806003018054610170906106e3565b80601f016020809104026020016040519081016040528092919081815260200182805461019c906106e3565b80156101e95780601f106101be576101008083540402835291602001916101e9565b820191906000526020600020905b8154815290600101906020018083116101cc57829003601f168201915b5050505050905084565b604080516080810182528481523360208201908152918101848152606082018490526000805460018101825590805282517f290decd9548b62a8d60345a988386fc84ba6bc95484008f6362f93160ef3e563600490920291820190815593517f290decd9548b62a8d60345a988386fc84ba6bc95484008f6362f93160ef3e564820180546001600160a01b0319166001600160a01b0390921691909117905590519192917f290decd9548b62a8d60345a988386fc84ba6bc95484008f6362f93160ef3e565909101906102c69082610768565b50606082015160038201906102db9082610768565b505050505050565b60606000805480602002602001604051908101604052809291908181526020016000905b8282101561047d57600084815260209081902060408051608081018252600486029092018054835260018101546001600160a01b0316938301939093526002830180549293929184019161035a906106e3565b80601f0160208091040260200160405190810160405280929190818152602001828054610386906106e3565b80156103d35780601f106103a8576101008083540402835291602001916103d3565b820191906000526020600020905b8154815290600101906020018083116103b657829003601f168201915b505050505081526020016003820180546103ec906106e3565b80601f0160208091040260200160405190810160405280929190818152602001828054610418906106e3565b80156104655780601f1061043a57610100808354040283529160200191610465565b820191906000526020600020905b81548152906001019060200180831161044857829003601f168201915b50505050508152505081526020019060010190610307565b50505050905090565b60006020828403121561049857600080fd5b5035919050565b6000815180845260005b818110156104c5576020818501810151868301820152016104a9565b506000602082860101526020601f19601f83011685010191505092915050565b8481526001600160a01b038416602082015260806040820181905260009061050f9083018561049f565b8281036060840152610521818561049f565b979650505050505050565b634e487b7160e01b600052604160045260246000fd5b600082601f83011261055357600080fd5b813567ffffffffffffffff8082111561056e5761056e61052c565b604051601f8301601f19908116603f011681019082821181831017156105965761059661052c565b816040528381528660208588010111156105af57600080fd5b836020870160208301376000602085830101528094505050505092915050565b6000806000606084860312156105e457600080fd5b83359250602084013567ffffffffffffffff8082111561060357600080fd5b61060f87838801610542565b9350604086013591508082111561062557600080fd5b5061063286828701610542565b9150509250925092565b60006020808301818452808551808352604092508286019150828160051b87010184880160005b838110156106d557888303603f19018552815180518452878101516001600160a01b031688850152868101516080888601819052906106a48287018261049f565b915050606080830151925085820381870152506106c1818361049f565b968901969450505090860190600101610663565b509098975050505050505050565b600181811c908216806106f757607f821691505b60208210810361071757634e487b7160e01b600052602260045260246000fd5b50919050565b601f82111561076357600081815260208120601f850160051c810160208610156107445750805b601f850160051c820191505b818110156102db57828155600101610750565b505050565b815167ffffffffffffffff8111156107825761078261052c565b6107968161079084546106e3565b8461071d565b602080601f8311600181146107cb57600084156107b35750858301515b600019600386901b1c1916600185901b1785556102db565b600085815260208120601f198616915b828110156107fa578886015182559484019460019091019084016107db565b50858210156108185787850151600019600388901b60f8161c191681555b5050505050600190811b0190555056fea264697066735822122099516bf45ed25db6cd662896909478ef3c2e2f4bf0ff369e16f1d17fe1d7108d64736f6c63430008110033",
  "linkReferences": {},
  "deployedLinkReferences": {}
}