{
  "_format": "hh-sol-artifact-1",
  "contractName": "DocRepo",
  "sourceName": "contracts/DocRepo.sol",
  "abi": [
    {
      "inputs": [],
      "stateMutability": "nonpayable",
      "type": "constructor"
    },
    {
      "inputs": [
        {
          "internalType": "uint256",
          "name": "_id",
          "type": "uint256"
        },
        {
          "internalType": "string",
          "name": "_regState",
          "type": "string"
        },
        {
          "internalType": "string",
          "name": "_phoneNum",
          "type": "string"
        }
      ],
      "name": "addDoc",
      "outputs": [],
      "stateMutability": "nonpayable",
      "type": "function"
    },
    {
      "inputs": [
        {
          "internalType": "uint256",
          "name": "",
          "type": "uint256"
        }
      ],
      "name": "doctors",
      "outputs": [
        {
          "internalType": "uint256",
          "name": "id",
          "type": "uint256"
        },
        {
          "internalType": "address",
          "name": "docAddress",
          "type": "address"
        },
        {
          "internalType": "string",
          "name": "regState",
          "type": "string"
        },
        {
          "internalType": "string",
          "name": "phoneNum",
          "type": "string"
        }
      ],
      "stateMutability": "view",
      "type": "function"
    },
    {
      "inputs": [],
      "name": "getDoc",
      "outputs": [
        {
          "components": [
            {
              "internalType": "uint256",
              "name": "id",
              "type": "uint256"
            },
            {
              "internalType": "address",
              "name": "docAddress",
              "type": "address"
            },
            {
              "internalType": "string",
              "name": "regState",
              "type": "string"
            },
            {
              "internalType": "string",
              "name": "phoneNum",
              "type": "string"
            }
          ],
          "internalType": "struct DocRepo.Doc[]",
          "name": "",
          "type": "tuple[]"
        }
      ],
      "stateMutability": "view",
      "type": "function"
    },
    {
      "inputs": [],
      "name": "owner",
      "outputs": [
        {
          "internalType": "address",
          "name": "",
          "type": "address"
        }
      ],
      "stateMutability": "view",
      "type": "function"
    }
  ],
  "bytecode": "0x608060405234801561001057600080fd5b50600080546001600160a01b03191633179055610896806100326000396000f3fe608060405234801561001057600080fd5b506004361061004c5760003560e01c80636efb1b8414610051578063766faedc1461007d5780638da5cb5b14610092578063c5845867146100bd575b600080fd5b61006461005f3660046104be565b6100d2565b604051610074949392919061051d565b60405180910390f35b61009061008b366004610607565b610229565b005b6000546100a5906001600160a01b031681565b6040516001600160a01b039091168152602001610074565b6100c561031b565b6040516100749190610674565b600181815481106100e257600080fd5b60009182526020909120600490910201805460018201546002830180549294506001600160a01b0390911692916101189061071b565b80601f01602080910402602001604051908101604052809291908181526020018280546101449061071b565b80156101915780601f1061016657610100808354040283529160200191610191565b820191906000526020600020905b81548152906001019060200180831161017457829003601f168201915b5050505050908060030180546101a69061071b565b80601f01602080910402602001604051908101604052809291908181526020018280546101d29061071b565b801561021f5780601f106101f45761010080835404028352916020019161021f565b820191906000526020600020905b81548152906001019060200180831161020257829003601f168201915b5050505050905084565b6040805160808101825284815233602082019081529181018481526060820184905260018054808201825560009190915282517fb10e2d527612073b26eecdfd717e6a320cf44b4afac2b0732d9fcbe2b7fa0cf6600490920291820190815593517fb10e2d527612073b26eecdfd717e6a320cf44b4afac2b0732d9fcbe2b7fa0cf7820180546001600160a01b0319166001600160a01b0390921691909117905590519192917fb10e2d527612073b26eecdfd717e6a320cf44b4afac2b0732d9fcbe2b7fa0cf8909101906102fe90826107a0565b506060820151600382019061031390826107a0565b505050505050565b60606001805480602002602001604051908101604052809291908181526020016000905b828210156104b557600084815260209081902060408051608081018252600486029092018054835260018101546001600160a01b031693830193909352600283018054929392918401916103929061071b565b80601f01602080910402602001604051908101604052809291908181526020018280546103be9061071b565b801561040b5780601f106103e05761010080835404028352916020019161040b565b820191906000526020600020905b8154815290600101906020018083116103ee57829003601f168201915b505050505081526020016003820180546104249061071b565b80601f01602080910402602001604051908101604052809291908181526020018280546104509061071b565b801561049d5780601f106104725761010080835404028352916020019161049d565b820191906000526020600020905b81548152906001019060200180831161048057829003601f168201915b5050505050815250508152602001906001019061033f565b50505050905090565b6000602082840312156104d057600080fd5b5035919050565b6000815180845260005b818110156104fd576020818501810151868301820152016104e1565b506000602082860101526020601f19601f83011685010191505092915050565b8481526001600160a01b0384166020820152608060408201819052600090610547908301856104d7565b828103606084015261055981856104d7565b979650505050505050565b634e487b7160e01b600052604160045260246000fd5b600082601f83011261058b57600080fd5b813567ffffffffffffffff808211156105a6576105a6610564565b604051601f8301601f19908116603f011681019082821181831017156105ce576105ce610564565b816040528381528660208588010111156105e757600080fd5b836020870160208301376000602085830101528094505050505092915050565b60008060006060848603121561061c57600080fd5b83359250602084013567ffffffffffffffff8082111561063b57600080fd5b6106478783880161057a565b9350604086013591508082111561065d57600080fd5b5061066a8682870161057a565b9150509250925092565b60006020808301818452808551808352604092508286019150828160051b87010184880160005b8381101561070d57888303603f19018552815180518452878101516001600160a01b031688850152868101516080888601819052906106dc828701826104d7565b915050606080830151925085820381870152506106f981836104d7565b96890196945050509086019060010161069b565b509098975050505050505050565b600181811c9082168061072f57607f821691505b60208210810361074f57634e487b7160e01b600052602260045260246000fd5b50919050565b601f82111561079b57600081815260208120601f850160051c8101602086101561077c5750805b601f850160051c820191505b8181101561031357828155600101610788565b505050565b815167ffffffffffffffff8111156107ba576107ba610564565b6107ce816107c8845461071b565b84610755565b602080601f83116001811461080357600084156107eb5750858301515b600019600386901b1c1916600185901b178555610313565b600085815260208120601f198616915b8281101561083257888601518255948401946001909101908401610813565b50858210156108505787850151600019600388901b60f8161c191681555b5050505050600190811b0190555056fea2646970667358221220a9441db4b4602debb4d2f66ec64baa3170de8f869f8921e3f6357797d9b1aaed64736f6c63430008110033",
  "linkReferences": {},
  "deployedLinkReferences": {}
}